S02B0000433A2F55736572732F4D6174746865774C65652F4465736B746F702F3234332F4C65676F436F6E74DC
S21400002004F4FFDE150000DA150180D81502C0D8EA
S214000030150300D9150440D9150580D9150640DAF0
S2140000401507C0DB150800DC150980DA150AC0DACA
S214000050150BC0D906E30000170000DA170180D898
S2140000601702C0D8170300D9170440D9170580D93E
S214000070170640DA1707C0DB170800DC170980DA16
S214000080170AC0DA170BC0D9040CC0DE04FF7FEFD6
S2080000903A0880EFB6
S2140002003400C1060400C0DE806A000000690000F9
S21400021040710000340040024420444AFA7001480D
S214000220340040024400404A3A70014834008202DA
S2140002300400805234000205040000A53440C202C7
S2140002400400C05A3A881F003A8821003A882300E2
S21400025034008004849F80943401C0040400EF9C22
S214000260340040030400426B040D406B2F00806B8B
S2140002702D0080A38400C07B3A88237C3A8869548A
S2140002808400406B1601C09306F83F003A881F00B2
S214000290040001841601009C06F43F00D4FF7F038F
S2140002A0AD145D53AD145C532D145D536D145C5347
S2140002B0AD135D532D145C532D135D53ED135C533A
S2140002C0AD125D53AD135C53041580036589835BE3
S2140002D044128003A589835B44138003E589835B0E
S2140002E044118003258A835B840E8003658A835BC2
S2140002F0D4074003AD175C532D185C53AD185C5300
S2140003002D195C53AD195C532D195D536D195D5352
S21400031044158003E58B835BC4148003258C835BC4
S21400032044118003658C835B84148003A58C835BF7
S214000330840E8003E58C835BC4108003E586835BB4
S214000340C41380032587835B441380036587835B20
S21400035004148003A587835B840E8003E587835B94
S2140003603400400304FC416B0700806B040C807370
S21400037065AA835B3400400344FC416B0700806B36
S214000380040C807325AA835B840E8003E5A9835B37
S2140003903400400384FC416B0700806B040C8073C0
S2140003A0A5A9835B34004003C4FC416B0700806B47
S2140003B0040C807365A9835B3400400304FD416B25
S2140003C00700806B040C8073E5AC835B340040034D
S2140003D084FD416B0700806B040C8073E5A7835B8C
S2140003E006DF3F003A3131003400800204008452B8
S2140003F03A7016562609805A34008002042080522D
S2140004003A7016562623805A3400800244008052E2
S2140004103A7016562677805A060F3F0034C83F02B9
S214000420041C0042370300462C00B0C0260A3F10CA
S2140004300400C103160A8078440280003400C0031A
S21400044084FDC17B0700007C260280804400008477
S21400045006010000040000040500007C06090000F8
S214000460440280003400C00304FDC17B0700007C0A
S2140004702602808044000084060100000400000478
S2140004800500007C34008000C4FFBF1035038040A8
S21400049006DD3F0034C87F020440404A37008048EB
S2140004A07400C0030400E07B3A709E7826EA3E782B
S2140004B03400C003C43FC07B3A709E7834C83F0205
S2140004C0840000423500C04334C83F02041C00428A
S2140004D0340000044407008434008000C406801002
S2140004E03400C000043CC01834000001C4080021D9
S2140004F034004001040740293400C001840EC0398E
S21400050034004002440C404A3400400404FE418C4F
S2140005100700808C34008001C43F80313A70A4917B
S2140005200500C08B3400800104FCBF31261CC0903F
S214000530261BC0782606007C260A8078260E0079C0
S21400054026124079261DC0792623407A06AE3F0043
S2140005503700C0433A709E790403C07B3500C04321
S21400056006A93F003700C0433A709E798403C07BDB
S2140005703500C04306A43F003700C0433A709E795A
S214000580C400C07B3500C043069F3F003700C04311
S2140005903A709E79C402C07B3500C043069A3F007D
S2140005A03700C0433400800104C0BF313A709E79E2
S2140005B0C43FC07B3500C04306933F003700C043AE
S2140005C034008001C4C3BF313A709E790438C07BC2
S2140005D03500C043068C3F003700C043340080011E
S2140005E0C4C3BF313A709E790430C07B3500C04327
S2140005F006853F0034C83F0204000842150000404C
S21400060044028000440100023400C00304FCC17BA5
S2140006100700007C26038080440000840500007CE0
S214000620068D3E003A8821000500007C3400C00399
S21400063044FCC17B0700007C260300824400008443
S2140006400500007C06843E003A8821000500007CF8
S2140006503400C00384FCC17B0700007C26FABF8000
S214000660440000840500007C067B3E003A8821009A
S2140006700500007C3400C003C4FCC17B0700007C7E
S21400068026F1BF80440000840500007C06723E0010
S21400069034C83F0204400042340040024400404A4E
S2140006A0150140423A2800F834C83F02041C0042B4
S2140006B074FD4102C4FF554A35014042F4CF7F0223
S2140006C0C4FF7F4A3500404234E07F02C4FF7F4AC1
S2140006D03500404234CF7F02C4FF7F4A3500404297
S2140006E034E07F02C4FF7F4A3500404234D87F02A0
S2140006F0C4FF7F4A35004042340070020400404A7E
S2140007003502404234004002C4FF7F4A350340426F
S2140007103A2800F834C83F02040008420440780231
S21400072035024042447D41023503404235000040D8
S214000730C4014002350140423A2800F804F8FFDEC2
S2140007401507C0DF150600DC150540DC150480DC47
S2140007501503C0DC150200DD150140DD150080DD47
S2140007603400020404000084340042040400408C78
S2140007703A8825003A88270004A000053401400581
S21400078004F070AD3A884921060000001601409D2D
S214000790060C0000160400950400C19C3AC8A1840B
S2140007A00400800406F93F003A88A18C3A88E18468
S2140007B02F0080252D0080858400809484000021F1
S2140007C006F43F001707C0DF170600DC170540DCFD
S2140007D0170480DC1703C0DC170200DD170140DDBC
S2140007E0170080DD0408C0DE3A2800F806F53F0052
S2140007F000000000000000000000000000000000F4
S214000800424D385802000000000036000000280064
S214000810000040010000F000000001001000000091
S214000820000002580200120B0000120B000000002D
S21400083000000000000000000000000000000000B3
S21400084000000000000000000000000000000000A3
S2140008500000000000000000000000000000000093
S2140008600000000000000000000000000000000083
S21400BD40000000000000000000004A29AD35AD35B7
S21400BD50AD35AD35AD35AD35AD35AD35AD354A293D
S21400BD6000000821AD350821000000004A29AD3545
S21400BD70AD350000000000000000000000000000DC
S21400BD80AD35AD354A29000000004A29AD35AD3540
S21400BD90AD35AD35AD35AD35AD35AD354A290000DF
S21400BDA0000000000000000000000000000000008E
S21400BDB0000000000000000000000000000000007E
S21400BDC0000000000000000000000000000000006E
S21400BDD0000000000000000000000000000000005E
S21400BFC0000000000000000000005A6BFF7FFF7FAB
S21400BFD0FF7FFF7FFF7FFF7FFF7FFF7FFF7F5A6B25
S21400BFE000009452FF7F9452000000005A6BFF7FBF
S21400BFF0FF7F4A2900000000000000000000082122
S21400C000FF7FFF7F5A6B000000005A6BFF7FFF7FA9
S21400C010FF7FFF7FFF7FFF7FFF7FFF7F5A6B000062
S21400C020000000000000000000000000000000000B
S21400C03000000000000000000000000000000000FB
S21400C04000000000000000000000000000000000EB
S21400C05000000000000000000000000000000000DB
S21400C24000000000000000000000104294529452CB
S21400C25094525A6BFF7F5A6B9452945294521042E7
S21400C26000009452FF7F9452000000005A6BFF7F3C
S21400C270FF7FB55600000000000000000000524A94
S21400C280FF7FFF7F5A6B000000005A6BFF7FF75E50
S21400C29094529452945294529452945210420000E3
S21400C2A00000000000000000000000000000000089
S21400C2B00000000000000000000000000000000079
S21400C2C00000000000000000000000000000000069
S21400C2D00000000000000000000000000000000059
S21400C4D000009452FF7F945200000000000000000D
S21400C4E000009452FF7F9452000000005A6BFF7FBA
S21400C4F0DE7BBD77000000000000000000007B6FC0
S21400C500FF7FFF7F5A6B000000005A6BFF7FAD3540
S21400C5100000000000000000000000000000000016
S21400C5200000000000000000000000000000000006
S21400C53000000000000000000000000000000000F6
S21400C54000000000000000000000000000000000E6
S21400C75000009452FF7F945200000000000000008A
S21400C76000009452FF7F9452000000005A6BFF7F37
S21400C770F75EFF7F4A290000000000000821FF7FC7
S21400C7807B6FFF7F5A6B000000005A6BFF7FAD3552
S21400C7900000000000000000000000000000000094
S21400C7A00000000000000000000000000000000084
S21400C7B00000000000000000000000000000000074
S21400C7C00000000000000000000000000000000064
S21400C9D000009452FF7F9452000000000000000008
S21400C9E000009452FF7F9452000000005A6BFF7FB5
S21400C9F0EF3DFF7FB556000000000000524AFF7F63
S21400CA00524AFF7F5A6B000000005A6BFF7FAD351D
S21400CA100000000000000000000000000000000011
S21400CA200000000000000000000000000000000001
S21400CA3000000000000000000000000000000000F1
S21400CA4000000000000000000000000000000000E1
S21400CC5000009452FF7F9452000000000000000085
S21400CC6000009452FF7F9452000000005A6BFF7F32
S21400CC700000DE7BBD770000000000007B6FBD7704
S21400CC80AD35FF7F5A6B000000005A6BFF7F7B6F4D
S21400CC905A6B5A6B5A6B5A6B5A6B5A6B4A2900007E
S21400CCA0000000000000000000000000000000007F
S21400CCB0000000000000000000000000000000006F
S21400CCC0000000000000000000000000000000005F
S21400CCD0000000000000000000000000000000004F
S21400CED000009452FF7F9452000000000000000003
S21400CEE000009452FF7F9452000000005A6BFF7FB0
S21400CEF00000F75EFF7F4A2900000821FF7FB55635
S21400CF00AD35FF7F5A6B000000005A6BFF7FFF7F36
S21400CF10FF7FFF7FFF7FFF7FFF7FFF7FAD35000036
S21400CF2000000000000000000000000000000000FC
S21400CF3000000000000000000000000000000000EC
S21400CF4000000000000000000000000000000000DC
S21400CF5000000000000000000000000000000000CC
S21400D15000009452FF7F9452000000000000000080
S21400D16000009452FF7F9452000000005A6BFF7F2D
S21400D1700000EF3DFF7FB5560000B556FF7F082143
S21400D180AD35FF7F5A6B000000005A6BFF7FAD3550
S21400D190000000000000000000000000000000008A
S21400D1A0000000000000000000000000000000007A
S21400D1B0000000000000000000000000000000006A
S21400D1C0000000000000000000000000000000005A
S21400D3D000009452FF7F94520000000000000000FE
S21400D3E000009452FF7F9452000000005A6BFF7FAB
S21400D3F000000000DE7BBD770000BD777B6F00007D
S21400D400AD35FF7F5A6B000000005A6BFF7FAD35CD
S21400D4100000000000000000000000000000000007
S21400D42000000000000000000000000000000000F7
S21400D43000000000000000000000000000000000E7
S21400D44000000000000000000000000000000000D7
S21400D65000009452FF7F945200000000000000007B
S21400D66000009452FF7F9452000000005A6BFF7F28
S21400D67000000000F75EFF7F1042FF7F524A000066
S21400D680AD35FF7F5A6B000000005A6BFF7FAD354B
S21400D6900000000000000000000000000000000085
S21400D6A00000000000000000000000000000000075
S21400D6B00000000000000000000000000000000065
S21400D6C00000000000000000000000000000000055
S21400D8D000009452FF7F94520000000000000000F9
S21400D8E000009452FF7F9452000000005A6BFF7FA6
S21400D8F000000000EF3DFF7FFF7FFF7F0821000054
S21400D900AD35FF7F5A6B000000005A6BFF7FAD35C8
S21400D9100000000000000000000000000000000002
S21400D92000000000000000000000000000000000F2
S21400D93000000000000000000000000000000000E2
S21400D94000000000000000000000000000000000D2
S21400DB5000009452FF7F9452000000000000000076
S21400DB6000009452FF7F9452000000005A6BFF7F23
S21400DB70000000000000DE7BFF7F7B6F00000000DF
S21400DB80AD35FF7F5A6B000000005A6BFF7FFF7FAA
S21400DB90FF7FFF7FFF7FFF7FFF7FFF7FFF7F00000E
S21400DBA00000000000000000000000000000000070
S21400DBB00000000000000000000000000000000060
S21400DBC00000000000000000000000000000000050
S21400DBD00000000000000000000000000000000040
S21400DDD000009452FF7F94520000000000000000F4
S21400DDE000009452FF7F9452000000005A6BFF7FA1
S21400DDF0000000000000F75EFF7F524A00000000AF
S21400DE00AD35FF7F5A6B000000005A6BFF7FFF7F27
S21400DE10FF7FFF7FFF7FFF7FFF7FFF7FFF7F00008B
S21400DE2000000000000000000000000000000000ED
S21400DE3000000000000000000000000000000000DD
S21400DE4000000000000000000000000000000000CD
S21400DE5000000000000000000000000000000000BD
S21400F830000000000000C07DC07DC07DC07DC07D92
S21400F840C07DC07DC07DC07DC07DC07DC07DC07DCB
S21400F850C07DC07DC07DC07DC07DC07DC07DC07DBB
S21400F860C07DC07DC07DC07DC07DC07DC07DC07DAB
S21400F870C07DC07DC07DC07DC07DC07DC07DC07D9B
S21400F880C07DC07DC07DC07DC07DC07DC07DC07D8B
S21400F890C07DC07DC07DC07DC07DC07DC07DC07D7B
S21400F8A0C07DC07DC07DC07DC07DC07DC07DC07D6B
S21400F8B0C07DC07DC07DC07DC07DC07DC07DC07D5B
S21400F8C0C07DC07DC07DC07DC07DC07DC07DC07D4B
S21400F8D0C07DC07DC07DC07DC07DC07DC07DC07D3B
S21400F8E0C07DC07DC07DC07DC07DC07DC07DC07D2B
S21400F8F0C07DC07DC07DC07DC07DC07DC07DC07D1B
S21400F900C07DC07DC07DC07DC07DC07DC07DC07D0A
S21400F910C07DC07DC07DC07DC07DC07DC07DC07DFA
S21400F920C07DC07DC07DC07DC07DC07D806D000077
S21400F93000000000000000000000000000000000C2
S21400F94000000000000000000000000000000000B2
S21400F95000000000000000000000000000000000A2
S21400F9600000000000000000000000000000000092
S21400F9700000000000000000000000000000000082
S21400F9800000000000000000000000000000000072
S21400F9900000000000000000000000000000000062
S21400F9A00000000000000000000000000000000052
S21400F9B000000000000000000000000000009101B0
S21400F9C0D301D301D301D301D301D301D301D30192
S21400F9D0D301D301D301D301D301D301D301D30182
S21400F9E0D301D301D301D301D301D301D301D30172
S21400F9F0D301D301D301D301D301D301D301D30162
S21400FA00D301D301D301D301D301D301D301D30151
S21400FA10D301D301D301D301D301D301D301D30141
S21400FA20D301D301D301D301D301D301D301D30131
S21400FA30D301D301D301D301D301D301D301D30121
S21400FA40D301D301D301D301D301D301D301D30111
S21400FA50D301D301D301D301D301D301D301D30101
S21400FA60D301D301D301D301D301D301D301D301F1
S21400FA70D301D301D301D301D301D301D301D301E1
S21400FA80D301D301D301D301D301D301D301D301D1
S21400FA90D301D301D301D301D301D301D301D301C1
S21400FAA0D301D301D301D301D301D301D301D301B1
S21400FAB0D301D301D301C07DC07DC07DC07DC07D94
S21400FAC0C07DC07DC07DC07DC07DC07DC07DC07D49
S21400FAD0C07DC07DC07DC07DC07DC07DC07DC07D39
S21400FAE0C07DC07DC07DC07DC07DC07DC07DC07D29
S21400FAF0C07DC07DC07DC07DC07DC07DC07DC07D19
S21400FB00C07DC07DC07DC07DC07DC07DC07DC07D08
S21400FB10C07DC07DC07DC07DC07DC07DC07DC07DF8
S21400FB20C07DC07DC07DC07DC07DC07DC07DC07DE8
S21400FB30C07DC07DC07DC07DC07DC07DC07DC07DD8
S21400FB40C07DC07DC07DC07DC07DC07DC07DC07DC8
S21400FB50C07DC07DC07DC07DC07DC07DC07DC07DB8
S21400FB60C07DC07DC07DC07DC07DC07DC07DC07DA8
S21400FB70C07DC07DC07DC07DC07DC07DC07DC07D98
S21400FB80C07DC07DC07DC07DC07DC07DC07DC07D88
S21400FB90C07DC07DC07DC07DC07DC07DC07DC07D78
S21400FBA0C07DC07DC07DC07DC07DC07DC07D802401
S21400FBB00000000000000000000000000000000040
S21400FBC00000000000000000000000000000000030
S21400FBD00000000000000000000000000000000020
S21400FBE00000000000000000000000000000000010
S21400FBF00000000000000000000000000000000000
S21400FC0000000000000000000000000000000000EF
S21400FC1000000000000000000000000000000000DF
S21400FC2000000000000000000000000000000000CF
S21400FC300000000000000000000000008600D30165
S21400FC40D301D301D301D301D301D301D301D3010F
S21400FC50D301D301D301D301D301D301D301D301FF
S21400FC60D301D301D301D301D301D301D301D301EF
S21400FC70D301D301D301D301D301D301D301D301DF
S21400FC80D301D301D301D301D301D301D301D301CF
S21400FC90D301D301D301D301D301D301D301D301BF
S21400FCA0D301D301D301D301D301D301D301D301AF
S21400FCB0D301D301D301D301D301D301D301D3019F
S21400FCC0D301D301D301D301D301D301D301D3018F
S21400FCD0D301D301D301D301D301D301D301D3017F
S21400FCE0D301D301D301D301D301D301D301D3016F
S21400FCF0D301D301D301D301D301D301D301D3015F
S21400FD00D301D301D301D301D301D301D301D3014E
S21400FD10D301D301D301D301D301D301D301D3013E
S21400FD20D301D301D301D301D301D301D301D3012E
S21400FD30D301D301D301C07DC07DC07DC07DC07D11
S21400FD40C07DC07DC07DC07DC07DC07DC07DC07DC6
S21400FD50C07DC07DC07DC07DC07DC07DC07DC07DB6
S21400FD60C07DC07DC07DC07DC07DC07DC07DC07DA6
S21400FD70C07DC07DC07DC07DC07DC07DC07DC07D96
S21400FD80C07DC07DC07DC07DC07DC07DC07DC07D86
S21400FD90C07DC07DC07DC07DC07DC07DC07DC07D76
S21400FDA0C07DC07DC07DC07DC07DC07DC07DC07D66
S21400FDB0C07DC07DC07DC07DC07DC07DC07DC07D56
S21400FDC0C07DC07DC07DC07DC07DC07DC07DC07D46
S21400FDD0C07DC07DC07DC07DC07DC07DC07DC07D36
S21400FDE0C07DC07DC07DC07DC07DC07DC07DC07D26
S21400FDF0C07DC07DC07DC07DC07DC07DC07DC07D16
S21400FE00C07DC07DC07DC07DC07DC07DC07DC07D05
S21400FE10C07DC07DC07DC07DC07DC07DC07DC07DF5
S21400FE20C07DC07DC07DC07DC07DC07DC07D405989
S21400FE3000000000000000000000000000000000BD
S21400FE4000000000000000000000000000000000AD
S21400FE50000000000000000000000000000000009D
S21400FE60000000000000000000000000000000008D
S21400FE70000000000000000000000000000000007D
S21400FE80000000000000000000000000000000006D
S21400FE90000000000000000000000000000000005D
S21400FEA0000000000000000000000000000000004D
S21400FEB00000000000000000000000004E01D3011A
S21400FEC0D301D301D301D301D301D301D301D3018D
S21400FED0D301D301D301D301D301D301D301D3017D
S21400FEE0D301D301D301D301D301D301D301D3016D
S21400FEF0D301D301D301D301D301D301D301D3015D
S21400FF00D301D301D301D301D301D301D301D3014C
S21400FF10D301D301D301D301D301D301D301D3013C
S21400FF20D301D301D301D301D301D301D301D3012C
S21400FF30D301D301D301D301D301D301D301D3011C
S21400FF40D301D301D301D301D301D301D301D3010C
S21400FF50D301D301D301D301D301D301D301D301FC
S21400FF60D301D301D301D301D301D301D301D301EC
S21400FF70D301D301D301D301D301D301D301D301DC
S21400FF80D301D301D301D301D301D301D301D301CC
S21400FF90D301D301D301D301D301D301D301D301BC
S21400FFA0D301D301D301D301D301D301D301D301AC
S21400FFB0D301D301D301C07DC07DC07DC07DC07D8F
S21400FFC0C07DC07DC07DC07DC07DC07DC07DC07D44
S21400FFD0C07DC07DC07DC07DC07DC07DC07DC07D34
S21400FFE0C07DC07DC07DC07DC07DC07DC07DC07D24
S21400FFF0C07DC07DC07DC07DC07DC07DC07DC07D14
S214010000C07DC07DC07DC07DC07DC07DC07DC07D02
S214010010C07DC07DC07DC07DC07DC07DC07DC07DF2
S214010020C07DC07DC07DC07DC07DC07DC07DC07DE2
S214010030C07DC07DC07DC07DC07DC07DC07DC07DD2
S214010040C07DC07DC07DC07DC07DC07DC07DC07DC2
S214010050C07DC07DC07DC07DC07DC07DC07DC07DB2
S214010060C07DC07DC07DC07DC07DC07DC07DC07DA2
S214010070C07DC07DC07DC07DC07DC07DC07DC07D92
S214010080C07DC07DC07DC07DC07DC07DC07DC07D82
S214010090C07DC07DC07DC07DC07DC07DC07DC07D72
S2140100A0C07DC07DC07DC07DC07DC07DC07DC07D62
S2140100B040100000000000000000000000000000EA
S2140100C0000000000000000000000000000000002A
S2140100D0000000000000000000000000000000001A
S2140100E0000000000000000000000000000000000A
S2140100F000000000000000000000000000000000FA
S21401010000000000000000000000000000000000E9
S21401011000000000000000000000000000000000D9
S21401012000000000000000000000000000000000C9
S214010130000000000000000000004300D301D301CE
S214010140D301D301D301D301D301D301D301D30109
S214010150D301D301D301D301D301D301D301D301F9
S214010160D301D301D301D301D301D301D301D301E9
S214010170D301D301D301D301D301D301D301D301D9
S214010180D301D301D301D301D301D301D301D301C9
S214010190D301D301D301D301D301D301D301D301B9
S2140101A0D301D301D301D301D301D301D301D301A9
S2140101B0D301D301D301D301D301D301D301D30199
S2140101C0D301D301D301D301D301D301D301D30189
S2140101D0D301D301D301D301D301D301D301D30179
S2140101E0D301D301D301D301D301D301D301D30169
S2140101F0D301D301D301D301D301D301D301D30159
S214010200D301D301D301D301D301D301D301D30148
S214010210D301D301D301D301D301D301D301D30138
S214010220D301D301D301D301D301D301D301D30128
S214010230D301D301D301C07DC07DC07DC07DC07D0B
S214010240C07DC07DC07DC07DC07DC07DC07DC07DC0
S214010250C07DC07DC07DC07DC07DC07DC07DC07DB0
S214010260C07DC07DC07DC07DC07DC07DC07DC07DA0
S214010270C07DC07DC07DC07DC07DC07DC07DC07D90
S214010280C07DC07DC07DC07DC07DC07DC07DC07D80
S214010290C07DC07DC07DC07DC07DC07DC07DC07D70
S2140102A0C07DC07DC07DC07DC07DC07DC07DC07D60
S2140102B0C07DC07DC07DC07DC07DC07DC07DC07D50
S2140102C0C07DC07DC07DC07DC07DC07DC07DC07D40
S2140102D0C07DC07DC07DC07DC07DC07DC07DC07D30
S2140102E0C07DC07DC07DC07DC07DC07DC07DC07D20
S2140102F0C07DC07DC07DC07DC07DC07DC07DC07D10
S214010300C07DC07DC07DC07DC07DC07DC07DC07DFF
S214010310C07DC07DC07DC07DC07DC07DC07DC07DEF
S214010320C07DC07DC07DC07DC07DC07DC07DC07DDF
S2140103300045000000000000000000000000000072
S21401034000000000000000000000000000000000A7
S2140103500000000000000000000000000000000097
S2140103600000000000000000000000000000000087
S2140103700000000000000000000000000000000077
S2140103800000000000000000000000000000000067
S2140103900000000000000000000000000000000057
S2140103A00000000000000000000000000000000047
S2140103B0000000000000000000000B01D301D30183
S2140103C0D301D301D301D301D301D301D301D30187
S2140103D0D301D301D301D301D301D301D301D30177
S2140103E0D301D301D301D301D301D301D301D30167
S2140103F0D301D301D301D301D301D301D301D30157
S214010400D301D301D301D301D301D301D301D30146
S214010410D301D301D301D301D301D301D301D30136
S214010420D301D301D301D301D301D301D301D30126
S214010430D301D301D301D301D301D301D301D30116
S214010440D301D301D301D301D301D301D301D30106
S214010450D301D301D301D301D301D301D301D301F6
S214010460D301D301D301D301D301D301D301D301E6
S214010470D301D301D301D301D301D301D301D301D6
S214010480D301D301D301D301D301D301D301D301C6
S214010490D301D301D301D301D301D301D301D301B6
S2140104A0D301D301D301D301D301D301D301D301A6
S2140104B0D301D301D301C07DC07DC07DC07DC07D89
S2140104C0C07D9B7FDE7FC07DC07DC07DC07DC07D41
S2140104D0C07DF37EFF7FAF7EC07DC07D9B7F9B7F0F
S2140104E0C07DC07DC07DC07DC07DC07DAF7EFF7FED
S2140104F0AF7EC07DC07DDE7FFF7FBC7FC07DC07DBF
S214010500C07DC07DC07DC07D287EFF7FFF7FF37EDE
S214010510C07DC07DC07DC07DC07DF37EFF7F797FBD
S214010520C07DC07DC07DC07DC07DC07D9B7FFF7FBF
S2140105306D7EC07DC07DC07DC07DC07DAF7EFF7FEE
S214010540AF7EC07DC07DC07DC07DC07DC07DC07DCD
S214010550C07DC07DC07DC07DC07DC07DC07DC07DAD
S214010560C07DC07DC07DC07DC07DC07DC07DC07D9D
S214010570C07DC07DC07DC07DC07DC07DC07DC07D8D
S214010580C07DC07DC07DC07DC07DC07DC07DC07D7D
S214010590C07DC07DC07DC07DC07DC07DC07DC07D6D
S2140105A0C07DC07DC07DC07DC07DC07DC07DC07D5D
S2140105B0A0752004000000000000000000000000FC
S2140105C00000000000000000000000000000000025
S2140105D00000000000000000000000000000000015
S2140105E00000000000000000000000000000000005
S2140105F000000000000000000000000000000000F5
S21401060000000000000000000000000000000000E4
S21401061000000000000000000000000000000000D4
S21401062000000000000000000000000000000000C4
S21401063000000000000000002100B201D301D30138
S214010640D301D301D301D301D301D301D301D30104
S214010650D301D301D301D301D301D301D301D301F4
S214010660D301D301D301D301D301D301D301D301E4
S214010670D301D301D301D301D301D301D301D301D4
S214010680D301D301D301D301D301D301D301D301C4
S214010690D301D301D301D301D301D301D301D301B4
S2140106A0D301D301D301D301D301D301D301D301A4
S2140106B0D301D301D301D301D301D301D301D30194
S2140106C0D301D301D301D301D301D301F94EFF7F67
S2140106D0983ED301D301D301D301D301D301D30172
S2140106E0983EFF7FFF7FFF7FFF7FFF7FFF7FFF7FBC
S2140106F0FF7FFF7FF415D301D301D301D301F94E58
S2140107007C67FF7FFF7FFF7FBE73F94ED301D30166
S214010710D301D301D301D301D301F94E9D6FFF7FDE
S214010720FF7FFF7F3B5B562ED301D301D301D3015D
S214010730D301D301D301C07DC07DC07DC07DC07D06
S214010740C07D9B7FDE7FC07DC07DC07DC07DC07DBE
S214010750C07DF37EFF7FAF7EC07DC07D9B7F9B7F8C
S214010760C07DC07DC07DC07DC07DC07DAF7EFF7F6A
S214010770AF7EC07DC07DDE7FFF7FFF7F4B7EC07D6D
S214010780C07DC07DC07DC07DF37EFF7FFF7FF37E91
S214010790C07DC07DC07DC07DC07DBC7FDE7FFF7F0C
S2140107A0287EC07DC07DC07DC07DC07D9B7FFF7FD4
S2140107B0BC7FC07DC07DC07DC07DC07DAF7EFF7F1C
S2140107C0AF7EC07DC07DC07DC07DC07DC07DC07D4B
S2140107D0C07DC07DC07DC07DC07DC07DC07DC07D2B
S2140107E0C07DC07DC07DC07DC07DC07DC07DC07D1B
S2140107F0C07DC07DC07DC07DC07DC07DC07DC07D0B
S214010800C07DC07DC07DC07DC07DC07DC07DC07DFA
S214010810C07DC07DC07DC07DC07DC07DC07DC07DEA
S214010820C07DC07DC07DC07DC07DC07DC07DC07DDA
S214010830C07DC03400000000000000000000000081
S21401084000000000000000000000000000000000A2
S2140108500000000000000000000000000000000092
S2140108600000000000000000000000000000000082
S2140108700000000000000000000000000000000072
S2140108800000000000000000000000000000000062
S2140108900000000000000000000000000000000052
S2140108A00000000000000000000000000000000042
S2140108B00000000000000000C800D301D301D301EE
S2140108C0D301D301D301D301D301D301D301D30182
S2140108D0D301D301D301D301D301D301D301D30172
S2140108E0D301D301D301D301D301D301D301D30162
S2140108F0D301D301D301D301D301D301D301D30152
S214010900D301D301D301D301D301D301D301D30141
S214010910D301D301D301D301D301D301D301D30131
S214010920D301D301D301D301D301D301D301D30121
S214010930D301D301D301D301D301D301D301D30111
S214010940D301D301D301D301D301D301F94EFF7FE4
S214010950983ED301D301D301D301D301D301D301EF
S214010960983EFF7FFF7FFF7FFF7FFF7FFF7FFF7F39
S214010970FF7FFF7FF415D301D301D3017C67FF7F8F
S214010980FF7FFF7FFF7FFF7FFF7FFF7F9D6FD3018D
S214010990D301D301D301F4159D6FFF7FFF7FFF7F46
S2140109A0FF7FFF7FFF7FFF7FF94ED301D301D30186
S2140109B0D301D301D301C07DC07DC07DC07DC07D84
S2140109C0C07D9B7FDE7FC07DC07DC07DC07DC07D3C
S2140109D0C07DF37EFF7FAF7EC07DC07D9B7F9B7F0A
S2140109E0C07DC07DC07DC07DC07DC07DAF7EFF7FE8
S2140109F0AF7EC07DC07DDE7FBC7FFF7FF37EC07D86
S214010A00C07DC07DC07DC07D797FDE7FFF7FF37EA8
S214010A10C07DC07DC07DC07D6D7EFF7F157FFF7F61
S214010A20F37EC07DC07DC07DC07DC07D9B7FFF7F86
S214010A30FF7F367FC07DC07DC07DC07DAF7EFF7FDE
S214010A40AF7EC07DC07DC07DC07DC07DC07DC07DC8
S214010A50C07DC07DC07DC07DC07DC07DC07DC07DA8
S214010A60C07DC07DC07DC07DC07DC07DC07DC07D98
S214010A70C07DC07DC07DC07DC07DC07DC07DC07D88
S214010A80C07DC07DC07DC07DC07DC07DC07DC07D78
S214010A90C07DC07DC07DC07DC07DC07DC07DC07D68
S214010AA0C07DC07DC07DC07DC07DC07DC07DC07D58
S214010AB0C07D80690000000000000000000000000A
S214010AC00000000000000000000000000000000020
S214010AD00000000000000000000000000000000010
S214010AE00000000000000000000000000000000000
S214010AF000000000000000000000000000000000F0
S214010B0000000000000000000000000000000000DF
S214010B1000000000000000000000000000000000CF
S214010B2000000000000000000000000000000000BF
S214010B3000000000000000007001D301D301D301C2
S214010B40D301D301D301D301D301D301D301D301FF
S214010B50D301D301D301D301D301D301D301D301EF
S214010B60D301D301D301D301D301D301D301D301DF
S214010B70D301D301D301D301D301D301D301D301CF
S214010B80D301D301D301D301D301D301D301D301BF
S214010B90D301D301D301D301D301D301D301D301AF
S214010BA0D301D301D301D301D301D301D301D3019F
S214010BB0D301D301D301D301D301D301D301D3018F
S214010BC0D301D301D301D301D301D301F94EFF7F62
S214010BD0983ED301D301D301D301D301D301D3016D
S214010BE0983EFF7FF94ED301D301D301D301D30140
S214010BF0D301D301D301D301D3017C67FF7FBE7339
S214010C00F94ED301D301D301983E9D6FFF7F1A574A
S214010C10D301D301D3019D6FFF7F9D6FD846D301CA
S214010C20D301F4153B5BFF7FFF7FD846D301D30189
S214010C30D301D301D301C07DC07DC07DC07DC07D01
S214010C40C07D9B7FDE7FC07DC07DC07DC07DC07DB9
S214010C50C07DF37EFF7FAF7EC07DC07D9B7F9B7F87
S214010C60C07DC07DC07DC07DC07DC07DAF7EFF7F65
S214010C70AF7EC07DC07DDE7F9B7F797FBC7FC07DE0
S214010C80C07DC07DC07D287EFF7F367FFF7FF37EDF
S214010C90C07DC07DC07DC07D367FDE7FE57D9B7FCC
S214010CA0BC7FC07DC07DC07DC07DC07D9B7F9B7F9E
S214010CB09B7FFF7F6D7EC07DC07DC07DAF7EFF7F49
S214010CC0AF7EC07DC07DC07DC07DC07DC07DC07D46
S214010CD0C07DC07DC07DC07DC07DC07DC07DC07D26
S214010CE0C07DC07DC07DC07DC07DC07DC07DC07D16
S214010CF0C07DC07DC07DC07DC07DC07DC07DC07D06
S214010D00C07DC07DC07DC07DC07DC07DC07DC07DF5
S214010D10C07DC07DC07DC07DC07DC07DC07DC07DE5
S214010D20C07DC07DC07DC07DC07DC07DC07DC07DD5
S214010D30C07DC07D80200000000000000000000093
S214010D40000000000000000000000000000000009D
S214010D50000000000000000000000000000000008D
S214010D60000000000000000000000000000000007D
S214010D70000000000000000000000000000000006D
S214010D80000000000000000000000000000000005D
S214010D90000000000000000000000000000000004D
S214010DA0000000000000000000000000000000003D
S214010DB00000000000008500D301D301D301D30158
S214010DC0D301D301D301D301D301D301D301D3017D
S214010DD0D301D301D301D301D301D301D301D3016D
S214010DE0D301D301D301D301D301D301D301D3015D
S214010DF0D301D301D301D301D301D301D301D3014D
S214010E00D301D301D301D301D301D301D301D3013C
S214010E10D301D301D301D301D301D301D301D3012C
S214010E20D301D301D301D301D301D301D301D3011C
S214010E30D301D301D301D301D301D301D301D3010C
S214010E40D301D301D301D301D301D301F94EFF7FDF
S214010E50983ED301D301D301D301D301D301D301EA
S214010E60983EFF7FF94ED301D301D301D301D301BD
S214010E70D301D301D301D3017736FF7FBE73F415B7
S214010E80D301D301D301D301D301F415BE733B5B68
S214010E90D301D301D846FF7F9D6FD301D301D30180
S214010EA0D301D301D301D846FF7FBE73D301D3014B
S214010EB0D301D301D301C07DC07DC07DC07DC07D7F
S214010EC0C07D9B7FDE7FC07DC07DC07DC07DC07D37
S214010ED0C07DF37EFF7FAF7EC07DC07D9B7F9B7F05
S214010EE0C07DC07DC07DC07DC07DC07DAF7EFF7FE3
S214010EF0AF7EC07DC07DDE7F9B7FF37EFF7F4B7E16
S214010F00C07DC07DC07DF37EDE7FAF7EFF7FF37E3A
S214010F10C07DC07DC07DC07DDE7F587FC07DF37EF5
S214010F20FF7FAF7EC07DC07DC07DC07D9B7F9B7FE8
S214010F30287EDE7FBC7FC07DC07DC07DAF7EFF7F0B
S214010F40AF7EC07DC07DC07DC07DC07DC07DC07DC3
S214010F50C07DC07DC07DC07DC07DC07DC07DC07DA3
S214010F60C07DC07DC07DC07DC07DC07DC07DC07D93
S214010F70C07DC07DC07DC07DC07DC07DC07DC07D83
S214010F80C07DC07DC07DC07DC07DC07DC07DC07D73
S214010F90C07DC07DC07DC07DC07DC07DC07DC07D63
S214010FA0C07DC07DC07DC07DC07DC07DC07DC07D53
S214010FB0C07DC07D2055000000000000000000003C
S214010FC0000000000000000000000000000000001B
S214010FD0000000000000000000000000000000000B
S214010FE000000000000000000000000000000000FB
S214010FF000000000000000000000000000000000EB
S21401100000000000000000000000000000000000DA
S21401101000000000000000000000000000000000CA
S21401102000000000000000000000000000000000BA
S2140110300000000000002D01D301D301D301D3012C
S214011040D301D301D301D301D301D301D301D301FA
S214011050D301D301D301D301D301D301D301D301EA
S214011060D301D301D301D301D301D301D301D301DA
S214011070D301D301D301D301D301D301D301D301CA
S214011080D301D301D301D301D301D301D301D301BA
S214011090D301D301D301D301D301D301D301D301AA
S2140110A0D301D301D301D301D301D301D301D3019A
S2140110B0D301D301D301D301D301D301D301D3018A
S2140110C0D301D301D301D301D301D301F94EFF7F5D
S2140110D0983ED301D301D301D301D301D301D30168
S2140110E0983EFF7FF94ED301D301D301D301D3013B
S2140110F0D301D301D301D3013B5BFF7FD846D30194
S214011100D301D301D301D301D301D301D301D30139
S214011110D301D3017C67FF7F7736D301D301D30197
S214011120D301D301D301D3017C67FF7F7736D30187
S214011130D301D301D301C07DC07DC07DC07DC07DFC
S214011140C07D9B7FFF7FFF7FFF7FFF7FFF7FFF7F4E
S214011150FF7FFF7FFF7FAF7EC07DC07D9B7F9B7F34
S214011160C07DC07DC07DC07DC07DC07DAF7EFF7F60
S214011170AF7EC07DC07DDE7F9B7F287EFF7FF37EB6
S214011180C07DC07DC07D9B7F367FAF7EFF7FF37EB7
S214011190C07DC07DC07DD17EFF7FAF7EC07D287EB5
S2140111A0FF7F587FC07DC07DC07DC07D9B7F9B7FBC
S2140111B0C07DF37EFF7F367FC07DC07DAF7EFF7F23
S2140111C0AF7EC07DC07DC07DC07DC07DC07DC07D41
S2140111D0C07DC07DC07DC07DC07DC07DC07DC07D21
S2140111E0C07DC07DC07DC07DC07DC07DC07DC07D11
S2140111F0C07DC07DC07DC07DC07DC07DC07DC07D01
S214011200C07DC07DC07DC07DC07DC07DC07DC07DF0
S214011210C07DC07DC07DC07DC07DC07DC07DC07DE0
S214011220C07DC07DC07DC07DC07DC07DC07DC07DD0
S214011230C07DC07DC07D40100000000000000000A1
S2140112400000000000000000000000000000000098
S2140112500000000000000000000000000000000088
S2140112600000000000000000000000000000000078
S2140112700000000000000000000000000000000068
S2140112800000000000000000000000000000000058
S2140112900000000000000000000000000000000048
S2140112A00000000000000000000000000000000038
S2140112B0000000004200B301D301D301D301D301E2
S2140112C0D301D301D301D301D301D301D301D30178
S2140112D0D301D301D301D301D301D301D301D30168
S2140112E0D301D301D301D301D301D301D301D30158
S2140112F0D301D301D301D301D301D301D301D30148
S214011300D301D301D301D301D301D301D301D30137
S214011310D301D301D301D301D301D301D301D30127
S214011320D301D301D301D301D301D301D301D30117
S214011330D301D301D301D301D301D301D301D30107
S214011340D301D301D301D301D301D301F94EFF7FDA
S214011350983ED301D301D301D301D301D301D301E5
S214011360983EFF7FFF7FFF7FFF7FFF7FFF7FFF7F2F
S214011370FF7F1A57D301D3019D6FFF7F3522D3011B
S214011380D301D301D301D301D301D301D301D301B7
S214011390D301D301BE73DE7BD301D301D301D301C5
S2140113A0D301D301D301D301F94EFF7FF94ED30107
S2140113B0D301D301D301C07DC07DC07DC07DC07D7A
S2140113C0C07D9B7FFF7FFF7FFF7FFF7FFF7FFF7FCC
S2140113D0FF7FFF7FFF7FAF7EC07DC07D9B7F9B7FB2
S2140113E0C07DC07DC07DC07DC07DC07DAF7EFF7FDE
S2140113F0AF7EC07DC07DDE7F9B7FC07D797FBC7F59
S214011400C07DC07D287EFF7FAF7EAF7EFF7FF37EEF
S214011410C07DC07DC07D797FBC7FC07DC07DC07D25
S214011420797FFF7F287EC07DC07DC07D9B7F9B7FAF
S214011430C07DC07D9B7FFF7F6D7EC07DAF7EFF7FC1
S214011440AF7EC07DC07DC07DC07DC07DC07DC07DBE
S214011450C07DC07DC07DC07DC07DC07DC07DC07D9E
S214011460C07DC07DC07DC07DC07DC07DC07DC07D8E
S214011470C07DC07DC07DC07DC07DC07DC07DC07D7E
S214011480C07DC07DC07DC07DC07DC07DC07DC07D6E
S214011490C07DC07DC07DC07DC07DC07DC07DC07D5E
S2140114A0C07DC07DC07DC07DC07DC07DC07DC07D4E
S2140114B0C07DC07DC07DE04000000000000000004F
S2140114C00000000000000000000000000000000016
S2140114D00000000000000000000000000000000006
S2140114E000000000000000000000000000000000F6
S2140114F000000000000000000000000000000000E6
S21401150000000000000000000000000000000000D5
S21401151000000000000000000000000000000000C5
S21401152000000000000000000000000000000000B5
S21401153000000000EA00D301D301D301D301D30197
S214011540D301D301D301D301D301D301D301D301F5
S214011550D301D301D301D301D301D301D301D301E5
S214011560D301D301D301D301D301D301D301D301D5
S214011570D301D301D301D301D301D301D301D301C5
S214011580D301D301D301D301D301D301D301D301B5
S214011590D301D301D301D301D301D301D301D301A5
S2140115A0D301D301D301D301D301D301D301D30195
S2140115B0D301D301D301D301D301D301D301D30185
S2140115C0D301D301D301D301D301D301F94EFF7F58
S2140115D0983ED301D301D301D301D301D301D30163
S2140115E0983EFF7FFF7FFF7FFF7FFF7FFF7FFF7FAD
S2140115F0FF7F1A57D301D301DE7BFF7FF415D3019A
S214011600D301D301983EFF7FFF7FFF7FFF7FFF7FE0
S214011610562ED301DE7BDE7BD301D301D301D3016A
S214011620D301D301D301D301F94EFF7FF94ED30184
S214011630D301D301D301C07DC07DC07DC07DC07DF7
S214011640C07D9B7FDE7FC07DC07DC07DC07DC07DAF
S214011650C07DF37EFF7FAF7EC07DC07D9B7F9B7F7D
S214011660C07DC07DC07DC07DC07DC07DD17EFF7F39
S214011670AF7EC07DC07DDE7F9B7FC07DF37EFF7F1A
S2140116804B7EC07DF37EBC7FC07DAF7EFF7FF37E49
S214011690C07DC07D287EFF7FF37EC07DC07DC07D7E
S2140116A0D17EFF7FF37EC07DC07DC07D9B7F9B7F0B
S2140116B0C07DC07D287EDE7FBC7FC07DAF7EFF7F84
S2140116C0AF7EC07DC07DC07DC07DC07DC07DC07D3C
S2140116D0C07DC07DC07DC07DC07DC07DC07DC07D1C
S2140116E0C07DC07DC07DC07DC07DC07DC07DC07D0C
S2140116F0C07DC07DC07DC07DC07DC07DC07DC07DFC
S214011700C07DC07DC07DC07DC07DC07DC07DC07DEB
S214011710C07DC07DC07DC07DC07DC07DC07DC07DDB
S214011720C07DC07DC07DC07DC07DC07DC07DC07DCB
S214011730C07DC07DC07DA0750004000000000000D3
S2140117400000000000000000000000000000000093
S2140117500000000000000000000000000000000083
S2140117600000000000000000000000000000000073
S2140117700000000000000000000000000000000063
S2140117800000000000000000000000000000000053
S2140117900000000000000000000000000000000043
S2140117A00000000000000000000000000000000033
S2140117B000000100B201D301D301D301D301D3014B
S2140117C0D301D301D301D301D301D301D301D30173
S2140117D0D301D301D301D301D301D301D301D30163
S2140117E0D301D301D301D301D301D301D301D30153
S2140117F0D301D301D301D301D301D301D301D30143
S214011800D301D301D301D301D301D301D301D30132
S214011810D301D301D301D301D301D301D301D30122
S214011820D301D301D301D301D301D301D301D30112
S214011830D301D301D301D301D301D301D301D30102
S214011840D301D301D301D301D301D301F94EFF7FD5
S214011850983ED301D301D301D301D301D301D301E0
S214011860983EFF7FF94ED301D301D301D301D301B3
S214011870D301D301D301D3019D6FFF7FF415D301AB
S214011880D301D301983EFF7FFF7FFF7FFF7FFF7F5E
S214011890562ED301DE7BDE7BD301D301D301D301E8
S2140118A0D301D301D301D301F94EFF7FF94ED30102
S2140118B0D301D301D301C07DC07DC07DC07DC07D75
S2140118C0C07D9B7FDE7FC07DC07DC07DC07DC07D2D
S2140118D0C07DF37EFF7FAF7EC07DC07D9B7FDE7FB8
S2140118E0C07DC07DC07DC07DC07DC07DF37EFF7F95
S2140118F06D7EC07DC07DDE7F9B7FC07D287EFF7FA5
S214011900F37EC07DBC7F367FC07DAF7EFF7FF37EDA
S214011910C07DC07DF37EFF7FFF7FFF7FFF7FFF7F60
S214011920FF7FFF7FBC7FC07DC07DC07D9B7F9B7F8F
S214011930C07DC07DC07DF37EFF7F157FAF7EFF7FBC
S214011940AF7EC07DC07DC07DC07DC07DC07DC07DB9
S214011950C07DC07DC07DC07DC07DC07DC07DC07D99
S214011960C07DC07DC07DC07DC07DC07DC07DC07D89
S214011970C07DC07DC07DC07DC07DC07DC07DC07D79
S214011980C07DC07DC07DC07DC07DC07DC07DC07D69
S214011990C07DC07DC07DC07DC07DC07DC07DC07D59
S2140119A0C07DC07DC07DC07DC07DC07DC07DC07D49
S2140119B0C07DC07DC07DC07DA0300000000000005D
S2140119C00000000000000000000000000000000011
S2140119D00000000000000000000000000000000001
S2140119E000000000000000000000000000000000F1
S2140119F000000000000000000000000000000000E1
S214011A0000000000000000000000000000000000D0
S214011A1000000000000000000000000000000000C0
S214011A2000000000000000000000000000000000B0
S214011A300000A700D301D301D301D301D301D30101
S214011A40D301D301D301D301D301D301D301D301F0
S214011A50D301D301D301D301D301D301D301D301E0
S214011A60D301D301D301D301D301D301D301D301D0
S214011A70D301D301D301D301D301D301D301D301C0
S214011A80D301D301D301D301D301D301D301D301B0
S214011A90D301D301D301D301D301D301D301D301A0
S214011AA0D301D301D301D301D301D301D301D30190
S214011AB0D301D301D301D301D301D301D301D30180
S214011AC0D301D301D301D301D301D301F94EFF7F53
S214011AD0983ED301D301D301D301D301D301D3015E
S214011AE0983EFF7FF94ED301D301D301D301D30131
S214011AF0D301D301D301D3013B5BFF7FD846D3018A
S214011B00D301D301D301D301D301D3011A57FF7FE8
S214011B10562ED3017C67FF7F7736D301D301D301DD
S214011B20D301D301D301D3017C67FF7F7736D3017D
S214011B30D301D301D301C07DC07DC07DC07DC07DF2
S214011B40C07D9B7FDE7FC07DC07DC07DC07DC07DAA
S214011B50C07DF37EFF7FAF7EC07DC07D587FFF7F57
S214011B604B7EC07DC07DC07DC07DC07D587FFF7F20
S214011B70287EC07DC07DDE7F9B7FC07DC07D797F56
S214011B80BC7F4B7EFF7F6D7EC07DAF7EFF7FF37E89
S214011B90C07DC07DBC7FFF7FFF7FFF7FFF7FFF7F14
S214011BA0FF7FFF7FFF7FAF7EC07DC07D9B7F9B7FDA
S214011BB0C07DC07DC07DC07D9B7FFF7F157FFF7F81
S214011BC0AF7EC07DC07DC07DC07DC07DC07DC07D37
S214011BD0C07DC07DC07DC07DC07DC07DC07DC07D17
S214011BE0C07DC07DC07DC07DC07DC07DC07DC07D07
S214011BF0C07DC07DC07DC07DC07DC07DC07DC07DF7
S214011C00C07DC07DC07DC07DC07DC07DC07DC07DE6
S214011C10C07DC07DC07DC07DC07DC07DC07DC07DD6
S214011C20C07DC07DC07DC07DC07DC07DC07DC07DC6
S214011C30C07DC07DC07DC07D6065000000000000E5
S214011C40000000000000000000000000000000008E
S214011C50000000000000000000000000000000007E
S214011C60000000000000000000000000000000006E
S214011C70000000000000000000000000000000005E
S214011C80000000000000000000000000000000004E
S214011C90000000000000000000000000000000003E
S214011CA0000000000000000000000000000000002E
S214011CB000007001D301D301D301D301D301D301B5
S214011CC0D301D301D301D301D301D301D301D3016E
S214011CD0D301D301D301D301D301D301D301D3015E
S214011CE0D301D301D301D301D301D301D301D3014E
S214011CF0D301D301D301D301D301D301D301D3013E
S214011D00D301D301D301D301D301D301D301D3012D
S214011D10D301D301D301D301D301D301D301D3011D
S214011D20D301D301D301D301D301D301D301D3010D
S214011D30D301D301D301D301D301D301D301D301FD
S214011D40D301D301D301D301D301D301F94EFF7FD0
S214011D50983ED301D301D301D301D301D301D301DB
S214011D60983EFF7FF94ED301D301D301D301D301AE
S214011D70D301D301D301D301983EFF7F9D6FF415A4
S214011D80D301D301D301D301D301D3011A57FF7F66
S214011D90562ED301D846FF7F9D6FD301D301D301C1
S214011DA0D301D301D301D846FF7FBE73D301D3013C
S214011DB0D301D301D301C07DC07DC07DC07DC07D70
S214011DC0C07D9B7FDE7FC07DC07DC07DC07DC07D28
S214011DD0C07DF37EFF7FAF7EC07DC07DD17EFF7F5D
S214011DE0BC7FAF7EC07DC07DE57D587FFF7F9B7F3A
S214011DF0C07DC07DC07DDE7F9B7FC07DC07DF37EC4
S214011E00FF7F587FBC7FC07DC07DAF7EFF7FF37EA6
S214011E10C07D6D7EFF7FF37EC07DC07DC07DC07DB1
S214011E20C07D4B7EFF7F587FC07DC07D9B7F9B7FA3
S214011E30C07DC07DC07DC07D287EDE7FFF7FFF7FA9
S214011E40AF7EC07DC07DC07DC07DC07DC07DC07DB4
S214011E50C07DC07DC07DC07DC07DC07DC07DC07D94
S214011E60C07DC07DC07DC07DC07DC07DC07DC07D84
S214011E70C07DC07DC07DC07DC07DC07DC07DC07D74
S214011E80C07DC07DC07DC07DC07DC07DC07DC07D64
S214011E90C07DC07DC07DC07DC07DC07DC07DC07D54
S214011EA0C07DC07DC07DC07DC07DC07DC07DC07D44
S214011EB0C07DC07DC07DC07DC07D601C000000006F
S214011EC0000000000000000000000000000000000C
S214011ED000000000000000000000000000000000FC
S214011EE000000000000000000000000000000000EC
S214011EF000000000000000000000000000000000DC
S214011F0000000000000000000000000000000000CB
S214011F1000000000000000000000000000000000BB
S214011F2000000000000000000000000000000000AB
S214011F306400D301D301D301D301D301D301D3016B
S214011F40D301D301D301D301D301D301D301D301EB
S214011F50D301D301D301D301D301D301D301D301DB
S214011F60D301D301D301D301D301D301D301D301CB
S214011F70D301D301D301D301D301D301D301D301BB
S214011F80D301D301D301D301D301D301D301D301AB
S214011F90D301D301D301D301D301D301D301D3019B
S214011FA0D301D301D301D301D301D301D301D3018B
S214011FB0D301D301D301D301D301D301D301D3017B
S214011FC0D301D301D301D301D301D301F94EFF7F4E
S214011FD0983ED301D301D301D301D301D301D30159
S214011FE0983EFF7FF94ED301D301D301D301D3012C
S214011FF0D301D301D301D301D3017C67FF7FBE7325
S214012000F94ED301D301D301562E3B5BFF7FDE7B16
S214012010F415D301D3017C67FF7F9D6FD846D301AA
S214012020D301F4153B5BFF7FFF7F983ED301D301BD
S214012030D301D301D301C07DC07DC07DC07DC07DED
S214012040C07D9B7FDE7FC07DC07DC07DC07DC07DA5
S214012050C07DF37EFF7FAF7EC07DC07DC07D797F72
S214012060FF7FFF7FFF7FFF7FFF7FFF7FFF7F6D7E0D
S214012070C07DC07DC07DDE7F9B7FC07DC07D287E0C
S214012080FF7FFF7F157FC07DC07DAF7EFF7FF37E24
S214012090C07D367FFF7F4B7EC07DC07DC07DC07D0D
S2140120A0C07DC07D9B7FDE7FE57DC07D9B7F9B7F66
S2140120B0C07DC07DC07DC07DC07DF37EFF7FFF7F7C
S2140120C0AF7EC07DC07DC07DC07DC07DC07DC07D32
S2140120D0C07DC07DC07DC07DC07DC07DC07DC07D12
S2140120E0C07DC07DC07DC07DC07DC07DC07DC07D02
S2140120F0C07DC07DC07DC07DC07DC07DC07DC07DF2
S214012100C07DC07DC07DC07DC07DC07DC07DC07DE1
S214012110C07DC07DC07DC07DC07DC07DC07DC07DD1
S214012120C07DC07DC07DC07DC07DC07DC07DC07DC1
S214012130C07DC07DC07DC07DC07D205100000000F7
S2140121400000000000000000000000000000000089
S2140121500000000000000000000000000000000079
S2140121600000000000000000000000000000000069
S2140121700000000000000000000000000000000059
S2140121800000000000000000000000000000000049
S2140121900000000000000000000000000000000039
S2140121A00000000000000000000000000000000029
S2140121B02D01D301D301D301D301D301D301D3011F
S2140121C0D301D301D301D301D301D301D301D30169
S2140121D0D301D301D301D301D301D301D301D30159
S2140121E0D301D301D301D301D301D301D301D30149
S2140121F0D301D301D301D301D301D301D301D30139
S214012200D301D301D301D301D301D301D301D30128
S214012210D301D301D301D301D301D301D301D30118
S214012220D301D301D301D301D301D301D301D30108
S214012230D301D301D301D301D301D301D301D301F8
S214012240D301D301D301D301D301D301F94EFF7FCB
S214012250FF7FFF7FFF7FFF7FFF7FFF7F5B63D301F2
S214012260983EFF7FFF7FFF7FFF7FFF7FFF7FFF7F20
S214012270FF7FFF7FF94ED301D301D3017C67FF7F38
S214012280FF7FFF7FFF7FFF7FFF7FFF7FBE73562E9F
S214012290D301D301D301F4159D6FFF7FFF7FFF7F2D
S2140122A0FF7FFF7FFF7FFF7FF94ED301D301D3016D
S2140122B0D301D301D301C07DC07DC07DC07DC07D6B
S2140122C0C07D9B7FDE7FC07DC07DC07DC07DC07D23
S2140122D0C07DF37EFF7FAF7EC07DC07DC07DC07DAB
S2140122E0F37EBC7FFF7FFF7FFF7F587F4B7EC07DE5
S2140122F0C07DC07DC07DDE7F9B7FC07DC07DC07DF3
S214012300797FFF7F6D7EC07DC07DAF7EFF7FF37ED0
S214012310E57DDE7F9B7FC07DC07DC07DC07DC07DAD
S214012320C07DC07DF37EFF7F157FC07D9B7F9B7F39
S214012330C07DC07DC07DC07DC07DC07D9B7FFF7F91
S214012340AF7EC07DC07DC07DC07DC07DC07DC07DAF
S214012350C07DC07DC07DC07DC07DC07DC07DC07D8F
S214012360C07DC07DC07DC07DC07DC07DC07DC07D7F
S214012370C07DC07DC07DC07DC07DC07DC07DC07D6F
S214012380C07DC07DC07DC07DC07DC07DC07DC07D5F
S214012390C07DC07DC07DC07DC07DC07DC07DC07D4F
S2140123A0C07DC07DC07DC07DC07DC07DC07DC07D3F
S2140123B0C07DC07DC07DC07DC07DA079200C0000A1
S2140123C00000000000000000000000000000000007
S2140123D000000000000000000000000000000000F7
S2140123E000000000000000000000000000000000E7
S2140123F000000000000000000000000000000000D7
S21401240000000000000000000000000000000000C6
S21401241000000000000000000000000000000000B6
S2140124200000000000000000000000000000220084
S214012430B301D301D301D301D301D301D301D30116
S214012440D301D301D301D301D301D301D301D301E6
S214012450D301D301D301D301D301D301D301D301D6
S214012460D301D301D301D301D301D301D301D301C6
S214012470D301D301D301D301D301D301D301D301B6
S214012480D301D301D301D301D301D301D301D301A6
S214012490D301D301D301D301D301D301D301D30196
S2140124A0D301D301D301D301D301D301D301D30186
S2140124B0D301D301D301D301D301D301D301D30176
S2140124C0D301D301D301D301D301D301F94EFF7F49
S2140124D0FF7FFF7FFF7FFF7FFF7FFF7F5B63D30170
S2140124E0983EFF7FFF7FFF7FFF7FFF7FFF7FFF7F9E
S2140124F0FF7FFF7FF94ED301D301D301D301D84625
S2140125005B63FF7FFF7FFF7F9D6FF94ED301D30192
S214012510D301D301D301D301D301F94E9D6FFF7FC0
S214012520FF7FFF7F3B5B562ED301D301D301D3013F
S214012530D301D301D301C07DC07DC07DC07DC07DE8
S214012540C07DC07DC07DC07DC07DC07DC07DC07D9D
S214012550C07DC07DC07DC07DC07DC07DC07DC07D8D
S214012560C07DC07DC07DC07DC07DC07DC07DC07D7D
S214012570C07DC07DC07DC07DC07DC07DC07DC07D6D
S214012580C07DC07DC07DC07DC07DC07DC07DC07D5D
S214012590C07DC07DC07DC07DC07DC07DC07DC07D4D
S2140125A0C07DC07DC07DC07DC07DC07DC07DC07D3D
S2140125B0C07DC07DC07DC07DC07DC07DC07DC07D2D
S2140125C0C07DC07DC07DC07DC07DC07DC07DC07D1D
S2140125D0C07DC07DC07DC07DC07DC07DC07DC07D0D
S2140125E0C07DC07DC07DC07DC07DC07DC07DC07DFD
S2140125F0C07DC07DC07DC07DC07DC07DC07DC07DED
S214012600C07DC07DC07DC07DC07DC07DC07DC07DDC
S214012610C07DC07DC07DC07DC07DC07DC07DC07DCC
S214012620C07DC07DC07DC07DC07DC07DC07DC07DBC
S214012630C07DC07DC07DC07DC07DC07DE03C00000A
S2140126400000000000000000000000000000000084
S2140126500000000000000000000000000000000074
S2140126600000000000000000000000000000000064
S2140126700000000000000000000000000000000054
S2140126800000000000000000000000000000000044
S2140126900000000000000000000000000000000034
S2140126A00000000000000000000000000000EA003A
S2140126B0D301D301D301D301D301D301D301D30174
S2140126C0D301D301D301D301D301D301D301D30164
S2140126D0D301D301D301D301D301D301D301D30154
S2140126E0D301D301D301D301D301D301D301D30144
S2140126F0D301D301D301D301D301D301D301D30134
S214012700D301D301D301D301D301D301D301D30123
S214012710D301D301D301D301D301D301D301D30113
S214012720D301D301D301D301D301D301D301D30103
S214012730D301D301D301D301D301D301D301D301F3
S214012740D301D301D301D301D301D301D301D301E3
S214012750D301D301D301D301D301D301D301D301D3
S214012760D301D301D301D301D301D301D301D301C3
S214012770D301D301D301D301D301D301D301D301B3
S214012780D301D301D301D301D301D301D301D301A3
S214012790D301D301D301D301D301D301D301D30193
S2140127A0D301D301D301D301D301D301D301D30183
S2140127B0D301D301D301C07DC07DC07DC07DC07D66
S2140127C0C07DC07DC07DC07DC07DC07DC07DC07D1B
S2140127D0C07DC07DC07DC07DC07DC07DC07DC07D0B
S2140127E0C07DC07DC07DC07DC07DC07DC07DC07DFB
S2140127F0C07DC07DC07DC07DC07DC07DC07DC07DEB
S214012800C07DC07DC07DC07DC07DC07DC07DC07DDA
S214012810C07DC07DC07DC07DC07DC07DC07DC07DCA
S214012820C07DC07DC07DC07DC07DC07DC07DC07DBA
S214012830C07DC07DC07DC07DC07DC07DC07DC07DAA
S214012840C07DC07DC07DC07DC07DC07DC07DC07D9A
S214012850C07DC07DC07DC07DC07DC07DC07DC07D8A
S214012860C07DC07DC07DC07DC07DC07DC07DC07D7A
S214012870C07DC07DC07DC07DC07DC07DC07DC07D6A
S214012880C07DC07DC07DC07DC07DC07DC07DC07D5A
S214012890C07DC07DC07DC07DC07DC07DC07DC07D4A
S2140128A0C07DC07DC07DC07DC07DC07DC07DC07D3A
S2140128B0C07DC07DC07DC07DC07DC07DA07100048F
S2140128C00000000000000000000000000000000002
S2140128D000000000000000000000000000000000F2
S2140128E000000000000000000000000000000000E2
S2140128F000000000000000000000000000000000D2
S21401290000000000000000000000000000000000C1
S21401291000000000000000000000000000000000B1
S214012920000000000000000000000000000091010F
S214012930D301D301D301D301D301D301D301D301F1
S214012940D301D301D301D301D301D301D301D301E1
S214012950D301D301D301D301D301D301D301D301D1
S214012960D301D301D301D301D301D301D301D301C1
S214012970D301D301D301D301D301D301D301D301B1
S214012980D301D301D301D301D301D301D301D301A1
S214012990D301D301D301D301D301D301D301D30191
S2140129A0D301D301D301D301D301D301D301D30181
S2140129B0D301D301D301D301D301D301D301D30171
S2140129C0D301D301D301D301D301D301D301D30161
S2140129D0D301D301D301D301D301D301D301D30151
S2140129E0D301D301D301D301D301D301D301D30141
S2140129F0D301D301D301D301D301D301D301D30131
S214012A00D301D301D301D301D301D301D301D30120
S214012A10D301D301D301D301D301D301D301D30110
S214012A20D301D301D301D301D301D301D301D30100
S214012A30D301D301D301C07DC07DC07DC07DC07DE3
S214012A40C07DC07DC07DC07DC07DC07DC07DC07D98
S214012A50C07DC07DC07DC07DC07DC07DC07DC07D88
S214012A60C07DC07DC07DC07DC07DC07DC07DC07D78
S214012A70C07DC07DC07DC07DC07DC07DC07DC07D68
S214012A80C07DC07DC07DC07DC07DC07DC07DC07D58
S214012A90C07DC07DC07DC07DC07DC07DC07DC07D48
S214012AA0C07DC07DC07DC07DC07DC07DC07DC07D38
S214012AB0C07DC07DC07DC07DC07DC07DC07DC07D28
S214012AC0C07DC07DC07DC07DC07DC07DC07DC07D18
S214012AD0C07DC07DC07DC07DC07DC07DC07DC07D08
S214012AE0C07DC07DC07DC07DC07DC07DC07DC07DF8
S214012AF0C07DC07DC07DC07DC07DC07DC07DC07DE8
S214012B00C07DC07DC07DC07DC07DC07DC07DC07DD7
S214012B10C07DC07DC07DC07DC07DC07DC07DC07DC7
S214012B20C07DC07DC07DC07DC07DC07DC07DC07DB7
S214012B30C07DC07DC07DC07DC07DC07DC07DA0281C
S214012B40000000000000000000000000000000007F
S214012B50000000000000000000000000000000006F
S214012B60000000000000000000000000000000005F
S214012B70000000000000000000000000000000004F
S214012B80000000000000000000000000000000003F
S214012B90000000000000000000000000000000002F
S214012BA0000000000000000000000000A700D301A4
S214012BB0D301D301D301D301D301D301D301D3016F
S214012BC0D301D301D301D301D301D301D301D3015F
S214012BD0D301D301D301D301D301D301D301D3014F
S214012BE0D301D301D301D301D301D301D301D3013F
S214012BF0D301D301D301D301D301D301D301D3012F
S214012C00D301D301D301D301D301D301D301D3011E
S214012C10D301D301D301D301D301D301D301D3010E
S214012C20D301D301D301D301D301D301D301D301FE
S214012C30D301D301D301D301D301D301D301D301EE
S214012C40D301D301D301D301D301D301D301D301DE
S214012C50D301D301D301D301D301D301D301D301CE
S214012C60D301D301D301D301D301D301D301D301BE
S214012C70D301D301D301D301D301D301D301D301AE
S214012C80D301D301D301D301D301D301D301D3019E
S214012C90D301D301D301D301D301D301D301D3018E
S214012CA0D301D301D301D301D301D301D301D3017E
S214012CB0D301D301D301C07DC07DC07DC07DC07D61
S214012CC0C07DC07DC07DC07DC07DC07DC07DC07D16
S214012CD0C07DC07DC07DC07DC07DC07DC07DC07D06
S214012CE0C07DC07DC07DC07DC07DC07DC07DC07DF6
S214012CF0C07DC07DC07DC07DC07DC07DC07DC07DE6
S214012D00C07DC07DC07DC07DC07DC07DC07DC07DD5
S214012D10C07DC07DC07DC07DC07DC07DC07DC07DC5
S214012D20C07DC07DC07DC07DC07DC07DC07DC07DB5
S214012D30C07DC07DC07DC07DC07DC07DC07DC07DA5
S214012D40C07DC07DC07DC07DC07DC07DC07DC07D95
S214012D50C07DC07DC07DC07DC07DC07DC07DC07D85
S214012D60C07DC07DC07DC07DC07DC07DC07DC07D75
S214012D70C07DC07DC07DC07DC07DC07DC07DC07D65
S214012D80C07DC07DC07DC07DC07DC07DC07DC07D55
S214012D90C07DC07DC07DC07DC07DC07DC07DC07D45
S214012DA0C07DC07DC07DC07DC07DC07DC07DC07D35
S214012DB0C07DC07DC07DC07DC07DC07DC07D6061A1
S214012DC000000000000000000000000000000000FD
S214012DD000000000000000000000000000000000ED
S214012DE000000000000000000000000000000000DD
S214012DF000000000000000000000000000000000CD
S214012E0000000000000000000000000000000000BC
S214012E1000000000000000000000000000000000AC
S214012E200000000000000000000000006F01D30158
S214012E30D301D301D301D301D301D301D301D301EC
S214012E40D301D301D301D301D301D301D301D301DC
S214012E50D301D301D301D301D301D301D301D301CC
S214012E60D301D301D301D301D301D301D301D301BC
S214012E70D301D301D301D301D301D301D301D301AC
S214012E80D301D301D301D301D301D301D301D3019C
S214012E90D301D301D301D301D301D301D301D3018C
S214012EA0D301D301D301D301D301D301D301D3017C
S214012EB0D301D301D301D301D301D301D301D3016C
S214012EC0D301D301D301D301D301D301D301D3015C
S214012ED0D301D301D301D301D301D301D301D3014C
S214012EE0D301D301D301D301D301D301D301D3013C
S214012EF0D301D301D301D301D301D301D301D3012C
S214012F00D301D301D301D301D301D301D301D3011B
S214012F10D301D301D301D301D301D301D301D3010B
S214012F20D301D301D301D301D301D301D301D301FB
S214012F30D301D301D301C07DC07DC07DC07DC07DDE
S214012F40C07DC07DC07DC07DC07DC07DC07DC07D93
S214012F50C07DC07DC07DC07DC07DC07DC07DC07D83
S214012F60C07DC07DC07DC07DC07DC07DC07DC07D73
S214012F70C07DC07DC07DC07DC07DC07DC07DC07D63
S214012F80C07DC07DC07DC07DC07DC07DC07DC07D53
S214012F90C07DC07DC07DC07DC07DC07DC07DC07D43
S214012FA0C07DC07DC07DC07DC07DC07DC07DC07D33
S214012FB0C07DC07DC07DC07DC07DC07DC07DC07D23
S214012FC0C07DC07DC07DC07DC07DC07DC07DC07D13
S214012FD0C07DC07DC07DC07DC07DC07DC07DC07D03
S214012FE0C07DC07DC07DC07DC07DC07DC07DC07DF3
S214012FF0C07DC07DC07DC07DC07DC07DC07DC07DE3
S214013000C07DC07DC07DC07DC07DC07DC07DC07DD2
S214013010C07DC07DC07DC07DC07DC07DC07DC07DC2
S214013020C07DC07DC07DC07DC07DC07DC07DC07DB2
S214013030C07DC07DC07DC07DC07DC07DC07DC07DA2
S2140130406018000000000000000000000000000002
S214013050000000000000000000000000000000006A
S214013060000000000000000000000000000000005A
S214013070000000000000000000000000000000004A
S214013080000000000000000000000000000000003A
S214013090000000000000000000000000000000002A
S2140130A0000000000000000000006400D301D3010E
S2140130B0D301D301D301D301D301D301D301D3016A
S2140130C0D301D301D301D301D301D301D301D3015A
S2140130D0D301D301D301D301D301D301D301D3014A
S2140130E0D301D301D301D301D301D301D301D3013A
S2140130F0D301D301D301D301D301D301D301D3012A
S214013100D301D301D301D301D301D301D301D30119
S214013110D301D301D301D301D301D301D301D30109
S214013120D301D301D301D301D301D301D301D301F9
S214013130D301D301D301D301D301D301D301D301E9
S214013140D301D301D301D301D301D301D301D301D9
S214013150D301D301D301D301D301D301D301D301C9
S214013160D301D301D301D301D301D301D301D301B9
S214013170D301D301D301D301D301D301D301D301A9
S214013180D301D301D301D301D301D301D301D30199
S214013190D301D301D301D301D301D301D301D30189
S2140131A0D301D301D301D301D301D301D301D30179
S2140131B0D301D301D301C07DC07DC07DC07DC07D5C
S2140131C0C07DC07DC07DC07DC07DC07DC07DC07D11
S2140131D0C07DC07DC07DC07DC07DC07DC07DC07D01
S2140131E0C07DC07DC07DC07DC07DC07DC07DC07DF1
S2140131F0C07DC07DC07DC07DC07DC07DC07DC07DE1
S214013200C07DC07DC07DC07DC07DC07DC07DC07DD0
S214013210C07DC07DC07DC07DC07DC07DC07DC07DC0
S214013220C07DC07DC07DC07DC07DC07DC07DC07DB0
S214013230C07DC07DC07DC07DC07DC07DC07DC07DA0
S214013240C07DC07DC07DC07DC07DC07DC07DC07D90
S214013250C07DC07DC07DC07DC07DC07DC07DC07D80
S214013260C07DC07DC07DC07DC07DC07DC07DC07D70
S214013270C07DC07DC07DC07DC07DC07DC07DC07D60
S214013280C07DC07DC07DC07DC07DC07DC07DC07D50
S214013290C07DC07DC07DC07DC07DC07DC07DC07D40
S2140132A0C07DC07DC07DC07DC07DC07DC07DC07D30
S2140132B0C07DC07DC07DC07DC07DC07DC07DC07D20
S2140132C0204D00000000000000000000000000008B
S2140132D000000000000000000000000000000000E8
S2140132E000000000000000000000000000000000D8
S2140132F000000000000000000000000000000000C8
S21401330000000000000000000000000000000000B7
S21401331000000000000000000000000000000000A7
S214013320000000000000000000002C01D301D301C2
S214013330D301D301D301D301D301D301D301D301E7
S214013340D301D301D301D301D301D301D301D301D7
S214013350D301D301D301D301D301D301D301D301C7
S214013360D301D301D301D301D301D301D301D301B7
S214013370D301D301D301D301D301D301D301D301A7
S214013380D301D301D301D301D301D301D301D30197
S214013390D301D301D301D301D301D301D301D30187
S2140133A0D301D301D301D301D301D301D301D30177
S2140133B0D301D301D301D301D301D301D301D30167
S2140133C0D301D301D301D301D301D301D301D30157
S2140133D0D301D301D301D301D301D301D301D30147
S2140133E0D301D301D301D301D301D301D301D30137
S2140133F0D301D301D301D301D301D301D301D30127
S214013400D301D301D301D301D301D301D301D30116
S214013410D301D301D301D301D301D301D301D30106
S214013420D301D301D301D301D301D301D301D301F6
S214013430D301D301D301405940594059405940590D
S21401344040594059405940594059405940594059AE
S214013450405940594059405940594059405940599E
S214013460405940594059405940594059405940598E
S214013470405940594059405940594059405940597E
S214013480405940594059405940594059405940596E
S214013490405940594059405940594059405940595E
S2140134A0405940594059405940594059405940594E
S2140134B0405940594059405940594059405940593E
S2140134C0405940594059405940594059405940592E
S2140134D0405940594059405940594059405940591E
S2140134E0405940594059405940594059405940590E
S2140134F040594059405940594059405940594059FE
S21401350040594059405940594059405940594059ED
S21401351040594059405940594059405940594059DD
S21401352040594059405940594059405940594059CD
S21401353040594059405940594059405940594059BD
S21401354040592008000000000000000000000000B4
S2140135500000000000000000000000000000000065
S2140135600000000000000000000000000000000055
S2140135700000000000000000000000000000000045
S2140135800000000000000000000000000000000035
S2140135900000000000000000000000000000000025
S2140135A0000000000000000021004E012D012D0149
S2140135B02D012D012D012D012D012D012D012D0195
S2140135C02D012D012D012D012D012D012D012D0185
S2140135D02D012D012D012D012D012D012D012D0175
S2140135E02D012D012D012D012D012D012D012D0165
S2140135F02D012D012D012D012D012D012D012D0155
S2140136002D012D012D012D012D012D012D012D0144
S2140136102D012D012D012D012D012D012D012D0134
S2140136202D012D012D012D012D012D012D012D0124
S2140136302D012D012D012D012D012D012D012D0114
S2140136402D012D012D012D012D012D012D012D0104
S2140136502D012D012D012D012D012D012D012D01F4
S2140136602D012D012D012D012D012D012D012D01E4
S2140136702D012D012D012D012D012D012D012D01D4
S2140136802D012D012D012D012D012D012D012D01C4
S2140136902D012D012D012D012D012D012D012D01B4
S2140136A02D012D012D012D012D012D012D012D01A4
S2140136B02D012D012D01405940594059405940597D
S2140136C0405940594059405940594059405940592C
S2140136D0405940594059405940594059405940591C
S2140136E0405940594059405940594059405940590C
S2140136F040594059405940594059405940594059FC
S21401370040594059405940594059405940594059EB
S21401371040594059405940594059405940594059DB
S21401372040594059405940594059405940594059CB
S21401373040594059405940594059405940594059BB
S21401374040594059405940594059405940594059AB
S214013750405940594059405940594059405940599B
S214013760405940594059405940594059405940598B
S214013770405940594059405940594059405940597B
S214013780405940594059405940594059405940596B
S214013790405940594059405940594059405940595B
S2140137A0405940594059405940594059405940594B
S2140137B0405940594059405940594059405940593B
S2140137C04059C03400000000000000000000000066
S2140137D000000000000000000000000000000000E3
S2140137E000000000000000000000000000000000D3
S2140137F000000000000000000000000000000000C3
S21401380000000000000000000000000000000000B2
S21401381000000000000000000000000000000000A2
S2140138200000000000000000C8002D012D012D0140
S2140138302D012D012D012D012D012D012D012D0112
S2140138402D012D012D012D012D012D012D012D0102
S2140138502D012D012D012D012D012D012D012D01F2
S2140138602D012D012D012D012D012D012D012D01E2
S2140138702D012D012D012D012D012D012D012D01D2
S2140138802D012D012D012D012D012D012D012D01C2
S2140138902D012D012D012D012D012D012D012D01B2
S2140138A02D012D012D012D012D012D012D012D01A2
S2140138B02D012D012D012D012D012D012D012D0192
S2140138C02D012D012D012D012D012D012D012D0182
S2140138D02D012D012D012D012D012D012D012D0172
S2140138E02D012D012D012D012D012D012D012D0162
S2140138F02D012D012D012D012D012D012D012D0152
S2140139002D012D012D012D012D012D012D012D0141
S2140139102D012D012D012D012D012D012D012D0131
S2140139202D012D012D012D012D012D012D012D0121
S2140139302D012D012D0140594059405940594059FA
S21401394040594059405940594059405940594059A9
S2140139504059405940594059405940594059405999
S2140139604059405940594059405940594059405989
S2140139704059405940594059405940594059405979
S2140139804059405940594059405940594059405969
S2140139904059405940594059405940594059405959
S2140139A04059405940594059405940594059405949
S2140139B04059405940594059405940594059405939
S2140139C04059405940594059405940594059405929
S2140139D04059405940594059405940594059405919
S2140139E04059405940594059405940594059405909
S2140139F040594059405940594059405940594059F9
S214013A0040594059405940594059405940594059E8
S214013A1040594059405940594059405940594059D8
S214013A2040594059405940594059405940594059C8
S214013A3040594059405940594059405940594059B8
S214013A404059405500000000000000000000000042
S214013A500000000000000000000000000000000060
S214013A600000000000000000000000000000000050
S214013A700000000000000000000000000000000040
S214013A800000000000000000000000000000000030
S214013A900000000000000000000000000000000020
S214013AA000000000000000002D012D012D012D0158
S214013AB02D012D012D012D012D012D012D012D0190
S214013AC02D012D012D012D012D012D012D012D0180
S214013AD02D012D012D012D012D012D012D012D0170
S214013AE02D012D012D012D012D012D012D012D0160
S214013AF02D012D012D012D012D012D012D012D0150
S214013B002D012D012D012D012D012D012D012D013F
S214013B102D012D012D012D012D012D012D012D012F
S214013B202D012D012D012D012D012D012D012D011F
S214013B302D012D012D012D012D012D012D012D010F
S214013B402D012D012D012D012D012D012D012D01FF
S214013B502D012D012D012D012D012D012D012D01EF
S214013B602D012D012D012D012D012D012D012D01DF
S214013B702D012D012D012D012D012D012D012D01CF
S214013B802D012D012D012D012D012D012D012D01BF
S214013B902D012D012D012D012D012D012D012D01AF
S214013BA02D012D012D012D012D012D012D012D019F
S214013BB02D012D012D014059405940594059405978
S214013BC04059405940594059405940594059405927
S214013BD04059405940594059405940594059405917
S214013BE04059405940594059405940594059405907
S214013BF040594059405940594059405940594059F7
S214013C0040594059405940594059405940594059E6
S214013C1040594059405940594059405940594059D6
S214013C2040594059405940594059405940594059C6
S214013C3040594059405940594059405940594059B6
S214013C4040594059405940594059405940594059A6
S214013C504059405940594059405940594059405996
S214013C604059405940594059405940594059405986
S214013C704059405940594059405940594059405976
S214013C804059405940594059405940594059405966
S214013C904059405940594059405940594059405956
S214013CA04059405940594059405940594059405946
S214013CB04059405940594059405940594059405936
S214013CC04059405980240000000000000000000018
S214013CD000000000000000000000000000000000DE
S214013CE000000000000000000000000000000000CE
S214013CF000000000000000000000000000000000BE
S214013D0000000000000000000000000000000000AD
S214013D10000000000000000000000000000000009D
S214013D2000000000000086002D012D012D012D014F
S214013D302D012D012D012D012D012D012D012D010D
S214013D402D012D012D012D012D012D012D012D01FD
S214013D502D012D012D012D012D012D012D012D01ED
S214013D602D012D012D012D012D012D012D012D01DD
S214013D702D012D012D012D012D012D012D012D01CD
S214013D802D012D012D012D012D012D012D012D01BD
S214013D902D012D012D012D012D012D012D012D01AD
S214013DA02D012D012D012D012D012D012D012D019D
S214013DB02D012D012D012D012D012D012D012D018D
S214013DC02D012D012D012D012D012D012D012D017D
S214013DD02D012D012D012D012D012D012D012D016D
S214013DE02D012D012D012D012D012D012D012D015D
S214013DF02D012D012D012D012D012D012D012D014D
S214013E002D012D012D012D012D012D012D012D013C
S214013E102D012D012D012D012D012D012D012D012C
S214013E202D012D012D012D012D012D012D012D011C
S214013E302D012D012D0140594059405940594059F5
S214013E4040594059405940594059405940594059A4
S214013E504059405940594059405940594059405994
S214013E604059405940594059405940594059405984
S214013E704059405940594059405940594059405974
S214013E804059405940594059405940594059405964
S214013E904059405940594059405940594059405954
S214013EA04059405940594059405940594059405944
S214013EB04059405940594059405940594059405934
S214013EC04059405940594059405940594059405924
S214013ED04059405940594059405940594059405914
S214013EE04059405940594059405940594059405904
S214013EF040594059405940594059405940594059F4
S214013F0040594059405940594059405940594059E3
S214013F1040594059405940594059405940594059D3
S214013F2040594059405940594059405940594059C3
S214013F3040594059405940594059405940594059B3
S214013F4040594059204D00000000000000000000CC
S214013F50000000000000000000000000000000005B
S214013F60000000000000000000000000000000004B
S214013F70000000000000000000000000000000003B
S214013F80000000000000000000000000000000002B
S214013F90000000000000000000000000000000001B
S214013FA00000000000002C012D012D012D012D0126
S214013FB02D012D012D012D012D012D012D012D018B
S214013FC02D012D012D012D012D012D012D012D017B
S214013FD02D012D012D012D012D012D012D012D016B
S214013FE02D012D012D012D012D012D012D012D015B
S214013FF02D012D012D012D012D012D012D012D014B
S2140140002D012D012D012D012D012D012D012D013A
S2140140102D012D012D012D012D012D012D012D012A
S2140140202D012D012D012D012D012D012D012D011A
S2140140302D012D012D012D012D012D012D012D010A
S2140140402D012D012D012D012D012D012D012D01FA
S2140140502D012D012D012D012D012D012D012D01EA
S2140140602D012D012D012D012D012D012D012D01DA
S2140140702D012D012D012D012D012D012D012D01CA
S2140140802D012D012D012D012D012D012D012D01BA
S2140140902D012D012D012D012D012D012D012D01AA
S2140140A02D012D012D012D012D012D012D012D019A
S2140140B02D012D012D014059405940594059405973
S2140140C04059405940594059405940594059405922
S2140140D04059405940594059405940594059405912
S2140140E04059405940594059405940594059405902
S2140140F040594059405940594059405940594059F2
S21401410040594059405940594059405940594059E1
S21401411040594059405940594059405940594059D1
S21401412040594059405940594059405940594059C1
S21401413040594059405940594059405940594059B1
S21401414040594059405940594059405940594059A1
S2140141504059405940594059405940594059405991
S2140141604059405940594059405940594059405981
S2140141704059405940594059405940594059405971
S2140141804059405940594059405940594059405961
S2140141904059405940594059405940594059405951
S2140141A04059405940594059405940594059405941
S2140141B04059405940594059405940594059405931
S2140141C040594059405940140000000000000000CA
S2140141D000000000000000000000000000000000D9
S2140141E000000000000000000000000000000000C9
S2140141F000000000000000000000000000000000B9
S21401420000000000000000000000000000000000A8
S2140142100000000000000000000000000000000098
S2140142200000000043004E012D012D012D012D013E
S2140142302D012D012D012D012D012D012D012D0108
S2140142402D012D012D012D012D012D012D012D01F8
S2140142502D012D012D012D012D012D012D012D01E8
